{
  "_format": "hh-sol-artifact-1",
  "contractName": "BlindAuctionFactory",
  "sourceName": "contracts/BlindAuctionFactory.sol",
  "abi": [
    {
      "inputs": [
        {
          "internalType": "address",
          "name": "_implementation",
          "type": "address"
        },
        {
          "internalType": "address",
          "name": "_verifier",
          "type": "address"
        }
      ],
      "stateMutability": "nonpayable",
      "type": "constructor"
    },
    {
      "anonymous": false,
      "inputs": [
        {
          "indexed": false,
          "internalType": "address",
          "name": "blindAuctionContract",
          "type": "address"
        },
        {
          "indexed": false,
          "internalType": "address",
          "name": "beneficiary",
          "type": "address"
        },
        {
          "indexed": false,
          "internalType": "uint256",
          "name": "numAuctions",
          "type": "uint256"
        },
        {
          "indexed": false,
          "internalType": "address[]",
          "name": "blindAuctionProxies",
          "type": "address[]"
        }
      ],
      "name": "BlindAuctionCloneCreated",
      "type": "event"
    },
    {
      "inputs": [
        {
          "internalType": "uint256",
          "name": "",
          "type": "uint256"
        }
      ],
      "name": "blindAuctionProxies",
      "outputs": [
        {
          "internalType": "address",
          "name": "",
          "type": "address"
        }
      ],
      "stateMutability": "view",
      "type": "function"
    },
    {
      "inputs": [
        {
          "internalType": "uint256",
          "name": "_biddingTime",
          "type": "uint256"
        },
        {
          "internalType": "uint256",
          "name": "_revealTime",
          "type": "uint256"
        },
        {
          "internalType": "address payable",
          "name": "_beneficiaryAddress",
          "type": "address"
        }
      ],
      "name": "createBlindAuctionProxy",
      "outputs": [
        {
          "internalType": "address",
          "name": "blindAuctionProxyContract",
          "type": "address"
        }
      ],
      "stateMutability": "payable",
      "type": "function"
    },
    {
      "inputs": [],
      "name": "getAllAuctions",
      "outputs": [
        {
          "internalType": "address[]",
          "name": "",
          "type": "address[]"
        }
      ],
      "stateMutability": "view",
      "type": "function"
    },
    {
      "inputs": [
        {
          "internalType": "uint8",
          "name": "id",
          "type": "uint8"
        }
      ],
      "name": "getAuctionById",
      "outputs": [
        {
          "internalType": "address",
          "name": "",
          "type": "address"
        }
      ],
      "stateMutability": "view",
      "type": "function"
    },
    {
      "inputs": [],
      "name": "implementation",
      "outputs": [
        {
          "internalType": "address",
          "name": "",
          "type": "address"
        }
      ],
      "stateMutability": "view",
      "type": "function"
    },
    {
      "inputs": [],
      "name": "verifierContract",
      "outputs": [
        {
          "internalType": "address",
          "name": "",
          "type": "address"
        }
      ],
      "stateMutability": "view",
      "type": "function"
    }
  ],
  "bytecode": "0x608060405234801561001057600080fd5b50604051610c1c380380610c1c8339818101604052810190610032919061011d565b816000806101000a81548173ffffffffffffffffffffffffffffffffffffffff021916908373ffffffffffffffffffffffffffffffffffffffff16021790555080600160006101000a81548173ffffffffffffffffffffffffffffffffffffffff021916908373ffffffffffffffffffffffffffffffffffffffff160217905550505061015d565b600080fd5b600073ffffffffffffffffffffffffffffffffffffffff82169050919050565b60006100ea826100bf565b9050919050565b6100fa816100df565b811461010557600080fd5b50565b600081519050610117816100f1565b92915050565b60008060408385031215610134576101336100ba565b5b600061014285828601610108565b925050602061015385828601610108565b9150509250929050565b610ab08061016c6000396000f3fe6080604052600436106100555760003560e01c80630221db611461005a5780631576dfba146100975780635c60da1b146100c7578063cbd2bdfd146100f2578063cf6956881461011d578063fd2ba8bf14610148575b600080fd5b34801561006657600080fd5b50610081600480360381019061007c9190610569565b610185565b60405161008e91906105d7565b60405180910390f35b6100b160048036038101906100ac9190610666565b6101d0565b6040516100be91906105d7565b60405180910390f35b3480156100d357600080fd5b506100dc61033f565b6040516100e991906105d7565b60405180910390f35b3480156100fe57600080fd5b50610107610363565b6040516101149190610777565b60405180910390f35b34801561012957600080fd5b506101326103f1565b60405161013f91906105d7565b60405180910390f35b34801561015457600080fd5b5061016f600480360381019061016a9190610799565b610417565b60405161017c91906105d7565b60405180910390f35b600060028260ff168154811061019e5761019d6107c6565b5b9060005260206000200160009054906101000a900473ffffffffffffffffffffffffffffffffffffffff169050919050565b60006101fb60008054906101000a900473ffffffffffffffffffffffffffffffffffffffff16610456565b90508073ffffffffffffffffffffffffffffffffffffffff166357fb25cc33600160009054906101000a900473ffffffffffffffffffffffffffffffffffffffff168787876040518663ffffffff1660e01b8152600401610260959493929190610813565b600060405180830381600087803b15801561027a57600080fd5b505af115801561028e573d6000803e3d6000fd5b505050506002819080600181540180825580915050600190039060005260206000200160009091909190916101000a81548173ffffffffffffffffffffffffffffffffffffffff021916908373ffffffffffffffffffffffffffffffffffffffff1602179055507fccfd2b750b6232691de64500e62cea37bc4961bcd17774c88f94f3d2bda8a9858183600280549050600260405161033094939291906109b1565b60405180910390a19392505050565b60008054906101000a900473ffffffffffffffffffffffffffffffffffffffff1681565b606060028054806020026020016040519081016040528092919081815260200182805480156103e757602002820191906000526020600020905b8160009054906101000a900473ffffffffffffffffffffffffffffffffffffffff1673ffffffffffffffffffffffffffffffffffffffff168152602001906001019080831161039d575b5050505050905090565b600160009054906101000a900473ffffffffffffffffffffffffffffffffffffffff1681565b6002818154811061042757600080fd5b906000526020600020016000915054906101000a900473ffffffffffffffffffffffffffffffffffffffff1681565b60006040517f3d602d80600a3d3981f3363d3d373d3d3d363d7300000000000000000000000081528260601b60148201527f5af43d82803e903d91602b57fd5bf3000000000000000000000000000000000060288201526037816000f0915050600073ffffffffffffffffffffffffffffffffffffffff168173ffffffffffffffffffffffffffffffffffffffff161415610526576040517f08c379a000000000000000000000000000000000000000000000000000000000815260040161051d90610a5a565b60405180910390fd5b919050565b600080fd5b600060ff82169050919050565b61054681610530565b811461055157600080fd5b50565b6000813590506105638161053d565b92915050565b60006020828403121561057f5761057e61052b565b5b600061058d84828501610554565b91505092915050565b600073ffffffffffffffffffffffffffffffffffffffff82169050919050565b60006105c182610596565b9050919050565b6105d1816105b6565b82525050565b60006020820190506105ec60008301846105c8565b92915050565b6000819050919050565b610605816105f2565b811461061057600080fd5b50565b600081359050610622816105fc565b92915050565b600061063382610596565b9050919050565b61064381610628565b811461064e57600080fd5b50565b6000813590506106608161063a565b92915050565b60008060006060848603121561067f5761067e61052b565b5b600061068d86828701610613565b935050602061069e86828701610613565b92505060406106af86828701610651565b9150509250925092565b600081519050919050565b600082825260208201905092915050565b6000819050602082019050919050565b6106ee816105b6565b82525050565b600061070083836106e5565b60208301905092915050565b6000602082019050919050565b6000610724826106b9565b61072e81856106c4565b9350610739836106d5565b8060005b8381101561076a57815161075188826106f4565b975061075c8361070c565b92505060018101905061073d565b5085935050505092915050565b600060208201905081810360008301526107918184610719565b905092915050565b6000602082840312156107af576107ae61052b565b5b60006107bd84828501610613565b91505092915050565b7f4e487b7100000000000000000000000000000000000000000000000000000000600052603260045260246000fd5b6107fe816105f2565b82525050565b61080d81610628565b82525050565b600060a08201905061082860008301886105c8565b61083560208301876105c8565b61084260408301866107f5565b61084f60608301856107f5565b61085c6080830184610804565b9695505050505050565b6000819050919050565b600061088b61088661088184610596565b610866565b610596565b9050919050565b600061089d82610870565b9050919050565b60006108af82610892565b9050919050565b6108bf816108a4565b82525050565b600081549050919050565b60008190508160005260206000209050919050565b60008160001c9050919050565b600073ffffffffffffffffffffffffffffffffffffffff82169050919050565b6000610925610920836108e5565b6108f2565b9050919050565b60006109388254610912565b9050919050565b6000600182019050919050565b6000610957826108c5565b61096181856106c4565b935061096c836108d0565b8060005b838110156109a4576109818261092c565b61098b88826106f4565b97506109968361093f565b925050600181019050610970565b5085935050505092915050565b60006080820190506109c660008301876105c8565b6109d360208301866108b6565b6109e060408301856107f5565b81810360608301526109f2818461094c565b905095945050505050565b600082825260208201905092915050565b7f455243313136373a20637265617465206661696c656400000000000000000000600082015250565b6000610a446016836109fd565b9150610a4f82610a0e565b602082019050919050565b60006020820190508181036000830152610a7381610a37565b905091905056fea2646970667358221220c3f45518e76282034101345e330bc9bd7198bfd688dea264ab2b00fae275ea7964736f6c634300080b0033",
  "linkReferences": {},
  "deployedLinkReferences": {}
}