{
  "_format": "hh-sol-artifact-1",
  "contractName": "BlindAuction",
  "sourceName": "contracts/BlindAuction.sol",
  "abi": [
    {
      "inputs": [],
      "name": "AuctionEndAlreadyCalled",
      "type": "error"
    },
    {
      "inputs": [],
      "name": "OnlyAuctioneer",
      "type": "error"
    },
    {
      "inputs": [],
      "name": "OnlyWinner",
      "type": "error"
    },
    {
      "inputs": [
        {
          "internalType": "uint256",
          "name": "time",
          "type": "uint256"
        }
      ],
      "name": "TooEarly",
      "type": "error"
    },
    {
      "inputs": [
        {
          "internalType": "uint256",
          "name": "time",
          "type": "uint256"
        }
      ],
      "name": "TooLate",
      "type": "error"
    },
    {
      "anonymous": false,
      "inputs": [
        {
          "indexed": false,
          "internalType": "address",
          "name": "winner",
          "type": "address"
        },
        {
          "indexed": false,
          "internalType": "uint256",
          "name": "highestBid",
          "type": "uint256"
        }
      ],
      "name": "AuctionEnded",
      "type": "event"
    },
    {
      "anonymous": false,
      "inputs": [
        {
          "indexed": false,
          "internalType": "address",
          "name": "highestBidder",
          "type": "address"
        }
      ],
      "name": "WinnerPaid",
      "type": "event"
    },
    {
      "inputs": [],
      "name": "DEPOSIT_AMOUNT",
      "outputs": [
        {
          "internalType": "uint256",
          "name": "",
          "type": "uint256"
        }
      ],
      "stateMutability": "view",
      "type": "function"
    },
    {
      "inputs": [],
      "name": "MAX_BIDS",
      "outputs": [
        {
          "internalType": "uint8",
          "name": "",
          "type": "uint8"
        }
      ],
      "stateMutability": "view",
      "type": "function"
    },
    {
      "inputs": [],
      "name": "THREE_DAYS",
      "outputs": [
        {
          "internalType": "uint256",
          "name": "",
          "type": "uint256"
        }
      ],
      "stateMutability": "view",
      "type": "function"
    },
    {
      "inputs": [],
      "name": "auctionEnd",
      "outputs": [],
      "stateMutability": "nonpayable",
      "type": "function"
    },
    {
      "inputs": [],
      "name": "auctioneer",
      "outputs": [
        {
          "internalType": "address",
          "name": "",
          "type": "address"
        }
      ],
      "stateMutability": "view",
      "type": "function"
    },
    {
      "inputs": [],
      "name": "beneficiary",
      "outputs": [
        {
          "internalType": "address payable",
          "name": "",
          "type": "address"
        }
      ],
      "stateMutability": "view",
      "type": "function"
    },
    {
      "inputs": [
        {
          "internalType": "bytes32",
          "name": "blindedBid",
          "type": "bytes32"
        }
      ],
      "name": "bid",
      "outputs": [],
      "stateMutability": "payable",
      "type": "function"
    },
    {
      "inputs": [],
      "name": "biddingEnd",
      "outputs": [
        {
          "internalType": "uint256",
          "name": "",
          "type": "uint256"
        }
      ],
      "stateMutability": "view",
      "type": "function"
    },
    {
      "inputs": [
        {
          "internalType": "uint256",
          "name": "",
          "type": "uint256"
        }
      ],
      "name": "bids",
      "outputs": [
        {
          "internalType": "bytes32",
          "name": "",
          "type": "bytes32"
        }
      ],
      "stateMutability": "view",
      "type": "function"
    },
    {
      "inputs": [
        {
          "internalType": "address",
          "name": "",
          "type": "address"
        }
      ],
      "name": "deposits",
      "outputs": [
        {
          "internalType": "uint256",
          "name": "",
          "type": "uint256"
        }
      ],
      "stateMutability": "view",
      "type": "function"
    },
    {
      "inputs": [],
      "name": "ended",
      "outputs": [
        {
          "internalType": "bool",
          "name": "",
          "type": "bool"
        }
      ],
      "stateMutability": "view",
      "type": "function"
    },
    {
      "inputs": [],
      "name": "getBids",
      "outputs": [
        {
          "internalType": "bytes32[]",
          "name": "",
          "type": "bytes32[]"
        }
      ],
      "stateMutability": "view",
      "type": "function"
    },
    {
      "inputs": [
        {
          "internalType": "uint256[2]",
          "name": "a",
          "type": "uint256[2]"
        },
        {
          "internalType": "uint256[2][2]",
          "name": "b",
          "type": "uint256[2][2]"
        },
        {
          "internalType": "uint256[2]",
          "name": "c",
          "type": "uint256[2]"
        },
        {
          "internalType": "uint256[10]",
          "name": "input",
          "type": "uint256[10]"
        }
      ],
      "name": "getHighestBidder",
      "outputs": [],
      "stateMutability": "nonpayable",
      "type": "function"
    },
    {
      "inputs": [
        {
          "internalType": "bytes32",
          "name": "",
          "type": "bytes32"
        }
      ],
      "name": "hashedBidsToBidders",
      "outputs": [
        {
          "internalType": "address",
          "name": "",
          "type": "address"
        }
      ],
      "stateMutability": "view",
      "type": "function"
    },
    {
      "inputs": [],
      "name": "highestBid",
      "outputs": [
        {
          "internalType": "uint256",
          "name": "",
          "type": "uint256"
        }
      ],
      "stateMutability": "view",
      "type": "function"
    },
    {
      "inputs": [],
      "name": "highestBidder",
      "outputs": [
        {
          "internalType": "address",
          "name": "",
          "type": "address"
        }
      ],
      "stateMutability": "view",
      "type": "function"
    },
    {
      "inputs": [
        {
          "internalType": "address",
          "name": "_auctioneer",
          "type": "address"
        },
        {
          "internalType": "address",
          "name": "_verifierAddress",
          "type": "address"
        },
        {
          "internalType": "uint256",
          "name": "_biddingTime",
          "type": "uint256"
        },
        {
          "internalType": "uint256",
          "name": "_revealTime",
          "type": "uint256"
        },
        {
          "internalType": "address payable",
          "name": "_beneficiaryAddress",
          "type": "address"
        }
      ],
      "name": "initialize",
      "outputs": [],
      "stateMutability": "nonpayable",
      "type": "function"
    },
    {
      "inputs": [],
      "name": "paymentEnd",
      "outputs": [
        {
          "internalType": "uint256",
          "name": "",
          "type": "uint256"
        }
      ],
      "stateMutability": "view",
      "type": "function"
    },
    {
      "inputs": [],
      "name": "revealEnd",
      "outputs": [
        {
          "internalType": "uint256",
          "name": "",
          "type": "uint256"
        }
      ],
      "stateMutability": "view",
      "type": "function"
    },
    {
      "inputs": [],
      "name": "verifierContractAddress",
      "outputs": [
        {
          "internalType": "address",
          "name": "",
          "type": "address"
        }
      ],
      "stateMutability": "view",
      "type": "function"
    },
    {
      "inputs": [
        {
          "internalType": "uint256[2]",
          "name": "a",
          "type": "uint256[2]"
        },
        {
          "internalType": "uint256[2][2]",
          "name": "b",
          "type": "uint256[2][2]"
        },
        {
          "internalType": "uint256[2]",
          "name": "c",
          "type": "uint256[2]"
        },
        {
          "internalType": "uint256[10]",
          "name": "input",
          "type": "uint256[10]"
        }
      ],
      "name": "verifyProof",
      "outputs": [
        {
          "internalType": "bool",
          "name": "",
          "type": "bool"
        }
      ],
      "stateMutability": "view",
      "type": "function"
    },
    {
      "inputs": [],
      "name": "winnerPaid",
      "outputs": [
        {
          "internalType": "bool",
          "name": "",
          "type": "bool"
        }
      ],
      "stateMutability": "view",
      "type": "function"
    },
    {
      "inputs": [],
      "name": "winnerPay",
      "outputs": [],
      "stateMutability": "payable",
      "type": "function"
    }
  ],
  "bytecode": "0x608060405234801561001057600080fd5b506125d3806100206000396000f3fe6080604052600436106101405760003560e01c8063957bb1e0116100b6578063d5d5f8e11161006f578063d5d5f8e1146103fc578063ec6925a714610427578063f38780e214610452578063f3bb70f61461047d578063f588b157146104ba578063fc7e286d146104e557610140565b8063957bb1e01461030b578063a6e6647714610327578063b81c78ec14610352578063be4e694e1461037d578063cdd7e77b146103a8578063d57bde79146103d157610140565b80634423c5f1116101085780634423c5f11461020857806357fb25cc146102455780635a8363471461026e5780635ec2c7bf146102ab5780638ce1a5d0146102d657806391f90157146102e057610140565b806312fa6feb146101455780632a24f46c14610170578063313732851461018757806338af3eed146101b2578063423b217f146101dd575b600080fd5b34801561015157600080fd5b5061015a610522565b604051610167919061165a565b60405180910390f35b34801561017c57600080fd5b50610185610535565b005b34801561019357600080fd5b5061019c61081c565b6040516101a9919061168e565b60405180910390f35b3480156101be57600080fd5b506101c7610822565b6040516101d491906116ea565b60405180910390f35b3480156101e957600080fd5b506101f2610848565b6040516101ff919061168e565b60405180910390f35b34801561021457600080fd5b5061022f600480360381019061022a9190611740565b61084e565b60405161023c9190611786565b60405180910390f35b34801561025157600080fd5b5061026c6004803603810190610267919061180b565b610872565b005b34801561027a57600080fd5b50610295600480360381019061029091906118b2565b610a5b565b6040516102a291906118ee565b60405180910390f35b3480156102b757600080fd5b506102c0610a8e565b6040516102cd91906118ee565b60405180910390f35b6102de610ab4565b005b3480156102ec57600080fd5b506102f5610ca9565b60405161030291906118ee565b60405180910390f35b610325600480360381019061032091906118b2565b610ccf565b005b34801561033357600080fd5b5061033c610ea8565b604051610349919061168e565b60405180910390f35b34801561035e57600080fd5b50610367610eae565b60405161037491906119c7565b60405180910390f35b34801561038957600080fd5b50610392610f4e565b60405161039f919061168e565b60405180910390f35b3480156103b457600080fd5b506103cf60048036038101906103ca9190611c92565b610f55565b005b3480156103dd57600080fd5b506103e661146e565b6040516103f3919061168e565b60405180910390f35b34801561040857600080fd5b50610411611474565b60405161041e9190611d17565b60405180910390f35b34801561043357600080fd5b5061043c611479565b604051610449919061168e565b60405180910390f35b34801561045e57600080fd5b50610467611485565b604051610474919061165a565b60405180910390f35b34801561048957600080fd5b506104a4600480360381019061049f9190611c92565b611498565b6040516104b1919061165a565b60405180910390f35b3480156104c657600080fd5b506104cf6115cd565b6040516104dc91906118ee565b60405180910390f35b3480156104f157600080fd5b5061050c60048036038101906105079190611d32565b6115f3565b604051610519919061168e565b60405180910390f35b600660009054906101000a900460ff1681565b60055480421161057c57806040517f2a35a324000000000000000000000000000000000000000000000000000000008152600401610573919061168e565b60405180910390fd5b600260009054906101000a900473ffffffffffffffffffffffffffffffffffffffff1673ffffffffffffffffffffffffffffffffffffffff163373ffffffffffffffffffffffffffffffffffffffff1614610603576040517f484218e100000000000000000000000000000000000000000000000000000000815260040160405180910390fd5b600660009054906101000a900460ff161561064a576040517f61cfdcf800000000000000000000000000000000000000000000000000000000815260040160405180910390fd5b7fdaec4582d5d9595688c8c98545fdd1c696d41c6aeaeb636737e84ed2f5c00eda600a60009054906101000a900473ffffffffffffffffffffffffffffffffffffffff16600b5460405161069f929190611d5f565b60405180910390a16001600660006101000a81548160ff02191690831515021790555060011515600660019054906101000a900460ff161515141561074e57600160009054906101000a900473ffffffffffffffffffffffffffffffffffffffff1673ffffffffffffffffffffffffffffffffffffffff166108fc600b549081150290604051600060405180830381858888f19350505050158015610748573d6000803e3d6000fd5b50610819565b600160009054906101000a900473ffffffffffffffffffffffffffffffffffffffff1673ffffffffffffffffffffffffffffffffffffffff166108fc60076000600a60009054906101000a900473ffffffffffffffffffffffffffffffffffffffff1673ffffffffffffffffffffffffffffffffffffffff1673ffffffffffffffffffffffffffffffffffffffff168152602001908152602001600020549081150290604051600060405180830381858888f19350505050158015610817573d6000803e3d6000fd5b505b50565b60055481565b600160009054906101000a900473ffffffffffffffffffffffffffffffffffffffff1681565b60035481565b6009818154811061085e57600080fd5b906000526020600020016000915090505481565b600060019054906101000a900460ff1661089a5760008054906101000a900460ff16156108a3565b6108a261160b565b5b6108e2576040517f08c379a00000000000000000000000000000000000000000000000000000000081526004016108d990611e0b565b60405180910390fd5b60008060019054906101000a900460ff161590508015610932576001600060016101000a81548160ff02191690831515021790555060016000806101000a81548160ff0219169083151502179055505b85600260006101000a81548173ffffffffffffffffffffffffffffffffffffffff021916908373ffffffffffffffffffffffffffffffffffffffff16021790555084600060026101000a81548173ffffffffffffffffffffffffffffffffffffffff021916908373ffffffffffffffffffffffffffffffffffffffff16021790555081600160006101000a81548173ffffffffffffffffffffffffffffffffffffffff021916908373ffffffffffffffffffffffffffffffffffffffff1602179055508342610a019190611e5a565b60038190555082600354610a159190611e5a565b6004819055506203f480600454610a2c9190611e5a565b6005819055508015610a535760008060016101000a81548160ff0219169083151502179055505b505050505050565b60086020528060005260406000206000915054906101000a900473ffffffffffffffffffffffffffffffffffffffff1681565b600260009054906101000a900473ffffffffffffffffffffffffffffffffffffffff1681565b600454804211610afb57806040517f2a35a324000000000000000000000000000000000000000000000000000000008152600401610af2919061168e565b60405180910390fd5b600a60009054906101000a900473ffffffffffffffffffffffffffffffffffffffff1673ffffffffffffffffffffffffffffffffffffffff163373ffffffffffffffffffffffffffffffffffffffff1614610b82576040517f760576b900000000000000000000000000000000000000000000000000000000815260040160405180910390fd5b60076000600a60009054906101000a900473ffffffffffffffffffffffffffffffffffffffff1673ffffffffffffffffffffffffffffffffffffffff1673ffffffffffffffffffffffffffffffffffffffff16815260200190815260200160002054600b54610bf19190611eb0565b3414610c32576040517f08c379a0000000000000000000000000000000000000000000000000000000008152600401610c2990611f30565b60405180910390fd5b6001600660016101000a81548160ff0219169083151502179055507f64014c1a2c6becea8e4509cf23cceabaf8a80dc774aaf936a72be51a68b40d51600a60009054906101000a900473ffffffffffffffffffffffffffffffffffffffff16604051610c9e91906118ee565b60405180910390a150565b600a60009054906101000a900473ffffffffffffffffffffffffffffffffffffffff1681565b600460ff1660098054905010610d1a576040517f08c379a0000000000000000000000000000000000000000000000000000000008152600401610d1190611f9c565b60405180910390fd5b670de0b6b3a76400003414610d64576040517f08c379a0000000000000000000000000000000000000000000000000000000008152600401610d5b90612008565b60405180910390fd5b6000600760003373ffffffffffffffffffffffffffffffffffffffff1673ffffffffffffffffffffffffffffffffffffffff1681526020019081526020016000205414610de6576040517f08c379a0000000000000000000000000000000000000000000000000000000008152600401610ddd90612074565b60405180910390fd5b34600760003373ffffffffffffffffffffffffffffffffffffffff1673ffffffffffffffffffffffffffffffffffffffff16815260200190815260200160002081905550336008600083815260200190815260200160002060006101000a81548173ffffffffffffffffffffffffffffffffffffffff021916908373ffffffffffffffffffffffffffffffffffffffff160217905550600981908060018154018082558091505060019003906000526020600020016000909190919091505550565b60045481565b6060600354804211610ef757806040517f2a35a324000000000000000000000000000000000000000000000000000000008152600401610eee919061168e565b60405180910390fd5b6009805480602002602001604051908101604052809291908181526020018280548015610f4357602002820191906000526020600020905b815481526020019060010190808311610f2f575b505050505091505090565b6203f48081565b600260009054906101000a900473ffffffffffffffffffffffffffffffffffffffff1673ffffffffffffffffffffffffffffffffffffffff163373ffffffffffffffffffffffffffffffffffffffff1614610fdc576040517f484218e100000000000000000000000000000000000000000000000000000000815260040160405180910390fd5b60005b600980549050811015611095576009818154811061100057610fff612094565b5b90600052602060002001548260098054905060028461101f9190611e5a565b6110299190611e5a565b600a811061103a57611039612094565b5b602002015160001b14611082576040517f08c379a000000000000000000000000000000000000000000000000000000000815260040161107990612135565b60405180910390fd5b808061108d90612155565b915050610fdf565b50600073ffffffffffffffffffffffffffffffffffffffff16600a60009054906101000a900473ffffffffffffffffffffffffffffffffffffffff1673ffffffffffffffffffffffffffffffffffffffff1614611127576040517f08c379a000000000000000000000000000000000000000000000000000000000815260040161111e906121ea565b60405180910390fd5b6001151561113785858585611498565b151514611179576040517f08c379a000000000000000000000000000000000000000000000000000000000815260040161117090612256565b60405180910390fd5b670de0b6b3a7640000816000600a811061119657611195612094565b5b60200201516111a59190612276565b600b8190555060086000826001600a81106111c3576111c2612094565b5b602002015160001b815260200190815260200160002060009054906101000a900473ffffffffffffffffffffffffffffffffffffffff16600a60006101000a81548173ffffffffffffffffffffffffffffffffffffffff021916908373ffffffffffffffffffffffffffffffffffffffff1602179055506000600290505b600980549050600a6112539190611eb0565b8110156114675760006008600084600980549050856112729190611e5a565b600a811061128357611282612094565b5b602002015160001b815260200190815260200160002060009054906101000a900473ffffffffffffffffffffffffffffffffffffffff1690506000600760008373ffffffffffffffffffffffffffffffffffffffff1673ffffffffffffffffffffffffffffffffffffffff168152602001908152602001600020541180156113595750600a60009054906101000a900473ffffffffffffffffffffffffffffffffffffffff1673ffffffffffffffffffffffffffffffffffffffff168173ffffffffffffffffffffffffffffffffffffffff1614155b801561137c575060018383600a811061137557611374612094565b5b6020020151145b15611453576000600760008373ffffffffffffffffffffffffffffffffffffffff1673ffffffffffffffffffffffffffffffffffffffff1681526020019081526020016000205490506000600760008473ffffffffffffffffffffffffffffffffffffffff1673ffffffffffffffffffffffffffffffffffffffff168152602001908152602001600020819055508173ffffffffffffffffffffffffffffffffffffffff166108fc829081150290604051600060405180830381858888f19350505050158015611450573d6000803e3d6000fd5b50505b50808061145f90612155565b915050611241565b5050505050565b600b5481565b600481565b670de0b6b3a764000081565b600660019054906101000a900460ff1681565b6000600260009054906101000a900473ffffffffffffffffffffffffffffffffffffffff1673ffffffffffffffffffffffffffffffffffffffff163373ffffffffffffffffffffffffffffffffffffffff1614611521576040517f484218e100000000000000000000000000000000000000000000000000000000815260040160405180910390fd5b600060029054906101000a900473ffffffffffffffffffffffffffffffffffffffff1673ffffffffffffffffffffffffffffffffffffffff1663f3bb70f6868686866040518563ffffffff1660e01b815260040161158294939291906124fd565b602060405180830381865afa15801561159f573d6000803e3d6000fd5b505050506040513d601f19601f820116820180604052508101906115c39190612570565b9050949350505050565b600060029054906101000a900473ffffffffffffffffffffffffffffffffffffffff1681565b60076020528060005260406000206000915090505481565b60006116163061161c565b15905090565b6000808273ffffffffffffffffffffffffffffffffffffffff163b119050919050565b60008115159050919050565b6116548161163f565b82525050565b600060208201905061166f600083018461164b565b92915050565b6000819050919050565b61168881611675565b82525050565b60006020820190506116a3600083018461167f565b92915050565b600073ffffffffffffffffffffffffffffffffffffffff82169050919050565b60006116d4826116a9565b9050919050565b6116e4816116c9565b82525050565b60006020820190506116ff60008301846116db565b92915050565b6000604051905090565b600080fd5b61171d81611675565b811461172857600080fd5b50565b60008135905061173a81611714565b92915050565b6000602082840312156117565761175561170f565b5b60006117648482850161172b565b91505092915050565b6000819050919050565b6117808161176d565b82525050565b600060208201905061179b6000830184611777565b92915050565b60006117ac826116a9565b9050919050565b6117bc816117a1565b81146117c757600080fd5b50565b6000813590506117d9816117b3565b92915050565b6117e8816116c9565b81146117f357600080fd5b50565b600081359050611805816117df565b92915050565b600080600080600060a086880312156118275761182661170f565b5b6000611835888289016117ca565b9550506020611846888289016117ca565b94505060406118578882890161172b565b93505060606118688882890161172b565b9250506080611879888289016117f6565b9150509295509295909350565b61188f8161176d565b811461189a57600080fd5b50565b6000813590506118ac81611886565b92915050565b6000602082840312156118c8576118c761170f565b5b60006118d68482850161189d565b91505092915050565b6118e8816117a1565b82525050565b600060208201905061190360008301846118df565b92915050565b600081519050919050565b600082825260208201905092915050565b6000819050602082019050919050565b61193e8161176d565b82525050565b60006119508383611935565b60208301905092915050565b6000602082019050919050565b600061197482611909565b61197e8185611914565b935061198983611925565b8060005b838110156119ba5781516119a18882611944565b97506119ac8361195c565b92505060018101905061198d565b5085935050505092915050565b600060208201905081810360008301526119e18184611969565b905092915050565b600080fd5b6000601f19601f8301169050919050565b7f4e487b7100000000000000000000000000000000000000000000000000000000600052604160045260246000fd5b611a37826119ee565b810181811067ffffffffffffffff82111715611a5657611a556119ff565b5b80604052505050565b6000611a69611705565b9050611a758282611a2e565b919050565b600067ffffffffffffffff821115611a9557611a946119ff565b5b602082029050919050565b600080fd5b6000611ab8611ab384611a7a565b611a5f565b90508060208402830185811115611ad257611ad1611aa0565b5b835b81811015611afb5780611ae7888261172b565b845260208401935050602081019050611ad4565b5050509392505050565b600082601f830112611b1a57611b196119e9565b5b6002611b27848285611aa5565b91505092915050565b600067ffffffffffffffff821115611b4b57611b4a6119ff565b5b602082029050919050565b6000611b69611b6484611b30565b611a5f565b90508060408402830185811115611b8357611b82611aa0565b5b835b81811015611bac5780611b988882611b05565b845260208401935050604081019050611b85565b5050509392505050565b600082601f830112611bcb57611bca6119e9565b5b6002611bd8848285611b56565b91505092915050565b600067ffffffffffffffff821115611bfc57611bfb6119ff565b5b602082029050919050565b6000611c1a611c1584611be1565b611a5f565b90508060208402830185811115611c3457611c33611aa0565b5b835b81811015611c5d5780611c49888261172b565b845260208401935050602081019050611c36565b5050509392505050565b600082601f830112611c7c57611c7b6119e9565b5b600a611c89848285611c07565b91505092915050565b6000806000806102408587031215611cad57611cac61170f565b5b6000611cbb87828801611b05565b9450506040611ccc87828801611bb6565b93505060c0611cdd87828801611b05565b925050610100611cef87828801611c67565b91505092959194509250565b600060ff82169050919050565b611d1181611cfb565b82525050565b6000602082019050611d2c6000830184611d08565b92915050565b600060208284031215611d4857611d4761170f565b5b6000611d56848285016117ca565b91505092915050565b6000604082019050611d7460008301856118df565b611d81602083018461167f565b9392505050565b600082825260208201905092915050565b7f496e697469616c697a61626c653a20636f6e747261637420697320616c72656160008201527f647920696e697469616c697a6564000000000000000000000000000000000000602082015250565b6000611df5602e83611d88565b9150611e0082611d99565b604082019050919050565b60006020820190508181036000830152611e2481611de8565b9050919050565b7f4e487b7100000000000000000000000000000000000000000000000000000000600052601160045260246000fd5b6000611e6582611675565b9150611e7083611675565b9250827fffffffffffffffffffffffffffffffffffffffffffffffffffffffffffffffff03821115611ea557611ea4611e2b565b5b828201905092915050565b6000611ebb82611675565b9150611ec683611675565b925082821015611ed957611ed8611e2b565b5b828203905092915050565b7f696e73756666696369656e74207061796d656e74000000000000000000000000600082015250565b6000611f1a601483611d88565b9150611f2582611ee4565b602082019050919050565b60006020820190508181036000830152611f4981611f0d565b9050919050565b7f6d61782062696473207265616368656400000000000000000000000000000000600082015250565b6000611f86601083611d88565b9150611f9182611f50565b602082019050919050565b60006020820190508181036000830152611fb581611f79565b9050919050565b7f6465706f736974206d7573742062652031206574686572000000000000000000600082015250565b6000611ff2601783611d88565b9150611ffd82611fbc565b602082019050919050565b6000602082019050818103600083015261202181611fe5565b9050919050565b7f6f6e6c79206f6e65206269642070657220616464726573730000000000000000600082015250565b600061205e601883611d88565b915061206982612028565b602082019050919050565b6000602082019050818103600083015261208d81612051565b9050919050565b7f4e487b7100000000000000000000000000000000000000000000000000000000600052603260045260246000fd5b7f626c696e6465644269647320696e7075747320746f2070726f6f6620646f206e60008201527f6f74206d617463682061756374696f6e20626c696e6465642062696473000000602082015250565b600061211f603d83611d88565b915061212a826120c3565b604082019050919050565b6000602082019050818103600083015261214e81612112565b9050919050565b600061216082611675565b91507fffffffffffffffffffffffffffffffffffffffffffffffffffffffffffffffff82141561219357612192611e2b565b5b600182019050919050565b7f62696473207765726520616c72656164792074616c6c69656400000000000000600082015250565b60006121d4601983611d88565b91506121df8261219e565b602082019050919050565b60006020820190508181036000830152612203816121c7565b9050919050565b7f70726f6f66206973206e6f742076616c69640000000000000000000000000000600082015250565b6000612240601283611d88565b915061224b8261220a565b602082019050919050565b6000602082019050818103600083015261226f81612233565b9050919050565b600061228182611675565b915061228c83611675565b9250817fffffffffffffffffffffffffffffffffffffffffffffffffffffffffffffffff04831182151516156122c5576122c4611e2b565b5b828202905092915050565b600060029050919050565b600081905092915050565b6000819050919050565b6122f981611675565b82525050565b600061230b83836122f0565b60208301905092915050565b6000602082019050919050565b61232d816122d0565b61233781846122db565b9250612342826122e6565b8060005b8381101561237357815161235a87826122ff565b965061236583612317565b925050600181019050612346565b505050505050565b600060029050919050565b600081905092915050565b6000819050919050565b600081905092915050565b6123af816122d0565b6123b9818461239b565b92506123c4826122e6565b8060005b838110156123f55781516123dc87826122ff565b96506123e783612317565b9250506001810190506123c8565b505050505050565b600061240983836123a6565b60408301905092915050565b6000602082019050919050565b61242b8161237b565b6124358184612386565b925061244082612391565b8060005b8381101561247157815161245887826123fd565b965061246383612415565b925050600181019050612444565b505050505050565b6000600a9050919050565b600081905092915050565b6000819050919050565b6000602082019050919050565b6124af81612479565b6124b98184612484565b92506124c48261248f565b8060005b838110156124f55781516124dc87826122ff565b96506124e783612499565b9250506001810190506124c8565b505050505050565b6000610240820190506125136000830187612324565b6125206040830186612422565b61252d60c0830185612324565b61253b6101008301846124a6565b95945050505050565b61254d8161163f565b811461255857600080fd5b50565b60008151905061256a81612544565b92915050565b6000602082840312156125865761258561170f565b5b60006125948482850161255b565b9150509291505056fea26469706673582212205b58850236ed087be2e6965b821a08c89642eeddd3417e93cf69febb6b7173da64736f6c634300080b0033",
  "linkReferences": {},
  "deployedLinkReferences": {}
}